:04000000C6EF3FF018
:107F8C00016A0001E2EF3FF0000ED66E840ED56E52
:107F9C0006D082A802D0010E01D0000E016E240E74
:107FAC00D65CF40ED758D8A0F4D7000ED56E000EC0
:107FBC00D76E000ED66E1200100E946E0E0E8B6ED7
:107FCC00CAEC3FF00D0E8B6ECAEC3FF00B0E8B6EB5
:107FDC00CAEC3FF0070E8B6ECAEC3FF00104D8A43C
:107FEC00EDD70B0E8B6ECAEC3FF00D0E8B6ECAEC00
:047FFC003FF0E4D797
:020000040020DA
:08000000FFFFFFFFFFFFFFFF00
:020000040030CA
:0E00000015087F7CFF8991FF0FC00FE00F40B5
:00000001FF
